{
  "contractName": "Drone",
  "abi": [
    {
      "inputs": [],
      "payable": false,
      "stateMutability": "nonpayable",
      "type": "constructor"
    },
    {
      "constant": true,
      "inputs": [],
      "name": "taskcount",
      "outputs": [
        {
          "internalType": "uint256",
          "name": "",
          "type": "uint256"
        }
      ],
      "payable": false,
      "stateMutability": "view",
      "type": "function"
    },
    {
      "constant": true,
      "inputs": [
        {
          "internalType": "uint256",
          "name": "",
          "type": "uint256"
        }
      ],
      "name": "tasks",
      "outputs": [
        {
          "internalType": "uint256",
          "name": "id",
          "type": "uint256"
        },
        {
          "internalType": "string",
          "name": "latlong",
          "type": "string"
        },
        {
          "internalType": "string",
          "name": "status",
          "type": "string"
        },
        {
          "internalType": "bool",
          "name": "completed",
          "type": "bool"
        }
      ],
      "payable": false,
      "stateMutability": "view",
      "type": "function"
    },
    {
      "constant": false,
      "inputs": [
        {
          "internalType": "string",
          "name": "_latlong",
          "type": "string"
        },
        {
          "internalType": "string",
          "name": "_status",
          "type": "string"
        }
      ],
      "name": "createTask",
      "outputs": [],
      "payable": false,
      "stateMutability": "nonpayable",
      "type": "function"
    }
  ],
  "bytecode": "0x60806040526000805534801561001457600080fd5b506100636040518060600160405280603081526020016106e56030913960408051808201909152600d81526c7374617475733a61637469766560981b60208201526001600160e01b0361006816565b610193565b6000805460019081018083556040805160808101825282815260208082018881528284018890526060830187905293865284815291909420845181559151805192936100bc939085019291909101906100f8565b50604082015180516100d89160028401916020909101906100f8565b50606091909101516003909101805460ff19169115159190911790555050565b828054600181600116156101000203166002900490600052602060002090601f016020900481019282601f1061013957805160ff1916838001178555610166565b82800160010185558215610166579182015b8281111561016657825182559160200191906001019061014b565b50610172929150610176565b5090565b61019091905b80821115610172576000815560010161017c565b90565b610543806101a26000396000f3fe608060405234801561001057600080fd5b50600436106100415760003560e01c8063292a4585146100465780638bd48089146101755780638d9776721461018f575b600080fd5b6101736004803603604081101561005c57600080fd5b81019060208101813564010000000081111561007757600080fd5b82018360208201111561008957600080fd5b803590602001918460018302840111640100000000831117156100ab57600080fd5b91908080601f01602080910402602001604051908101604052809392919081815260200183838082843760009201919091525092959493602081019350359150506401000000008111156100fe57600080fd5b82018360208201111561011057600080fd5b8035906020019184600183028401116401000000008311171561013257600080fd5b91908080601f01602080910402602001604051908101604052809392919081815260200183838082843760009201919091525092955061029c945050505050565b005b61017d61032c565b60408051918252519081900360200190f35b6101ac600480360360208110156101a557600080fd5b5035610332565b60405180858152602001806020018060200184151515158152602001838103835286818151815260200191508051906020019080838360005b838110156101fd5781810151838201526020016101e5565b50505050905090810190601f16801561022a5780820380516001836020036101000a031916815260200191505b50838103825285518152855160209182019187019080838360005b8381101561025d578181015183820152602001610245565b50505050905090810190601f16801561028a5780820380516001836020036101000a031916815260200191505b50965050505050505060405180910390f35b6000805460019081018083556040805160808101825282815260208082018881528284018890526060830187905293865284815291909420845181559151805192936102f093908501929190910190610473565b506040820151805161030c916002840191602090910190610473565b50606091909101516003909101805460ff19169115159190911790555050565b60005481565b600160208181526000928352604092839020805481840180548651600296821615610100026000190190911695909504601f810185900485028601850190965285855290949193929091908301828280156103ce5780601f106103a3576101008083540402835291602001916103ce565b820191906000526020600020905b8154815290600101906020018083116103b157829003601f168201915b50505060028085018054604080516020601f60001961010060018716150201909416959095049283018590048502810185019091528181529596959450909250908301828280156104605780601f1061043557610100808354040283529160200191610460565b820191906000526020600020905b81548152906001019060200180831161044357829003601f168201915b5050506003909301549192505060ff1684565b828054600181600116156101000203166002900490600052602060002090601f016020900481019282601f106104b457805160ff19168380011785556104e1565b828001600101855582156104e1579182015b828111156104e15782518255916020019190600101906104c6565b506104ed9291506104f1565b5090565b61050b91905b808211156104ed57600081556001016104f7565b9056fea265627a7a72315820f0dfc61bcbb5b5d9a30b03a2294e39c0eb7c63b0fd9be22e6db0a29c889e537c64736f6c63430005100032506572736f6e2073747275636b206174206c61743a2031322e39373136204e2c206c6f6e673a2037372e353934362045",
  "source": "pragma solidity >=0.4.22 <0.7.0;\r\ncontract Drone{\r\n\r\n    uint public taskcount = 0;\r\n\r\n    struct Drone {\r\n\r\n        uint id;\r\n        string latlong;\r\n        string status;\r\n        bool completed;\r\n\r\n    }\r\n    mapping(uint => Drone) public tasks;\r\n    constructor() public {\r\n        createTask(\"Person struck at lat: 12.9716 N, long: 77.5946 E\",\"status:active\");\r\n    }\r\n    function createTask(string memory _latlong,string memory _status) public {\r\n        taskcount ++;\r\n        tasks[taskcount]= Drone(taskcount, _latlong, _status,false);\r\n\r\n        }\r\n    \r\n\r\n}",
  "sourcePath": "d:/Hackathons/Microsoft/League 3/drone/contracts/Drone.sol",
  "compiler": {
    "name": "solc",
    "version": "0.5.16+commit.9c3226ce.Emscripten.clang"
  },
  "schemaVersion": "3.3.2",
  "updatedAt": "2020-11-27T13:26:51.299Z",
  "networkType": "ethereum",
  "devdoc": {
    "methods": {}
  },
  "userdoc": {
    "methods": {}
  }
}